:020000040800F2
:10000000E0220020550200083105000841040008E4
:100010002D05000809030008D90A000800000000A7
:10002000000000000000000000000000690100085E
:100030002903000800000000F10100084102000847
:100040006F0200086F0200086F0200086F020008CC
:100050006F0200086F0200086F0200086F020008BC
:100060006F0200086F0200086F0200086F020008AC
:100070006F0200086F0200086F0200086F0200089C
:100080006F0200086F0200086F0200086F0200088C
:100090006F0200086F0200086F0200086F0200087C
:1000A0006F0200086F0200086F0200086F0200086C
:1000B0006F0200086F0200086F0200086F0200085C
:1000C0006F0200086F0200086F0200086F0200084C
:1000D0006F020008F50700086F0200086F020008B1
:1000E0006F0200086F0200086F020008DFF80CD0F2
:1000F00000F0C2F800480047990D0008E0220020F7
:1001000080F309887047EFF309807047684680F3F1
:10011000098804480078C00714BF0220032080F338
:100120001488704788160008DFF818C0EFF30583BD
:100130001B0618BF6047EFF31483DB0708BF604757
:1001400000DF7047FD0D0008DFF818C0EFF30583EE
:100150001B0618BF6047EFF31483DB0708BF604737
:1001600000DF7047F90F0008EFF30980816911F88B
:10017000021C39BB90E80F10E047EFF3098C194BD4
:1001800093E80600914218D059B10CB44FF0010326
:1001900081F826302CE9F00FC1F82CC001F00CF9E1
:1001A0000CBC1A60D2F82CC0BCE8F00F92F82630D4
:1001B0008CF309881BB192F82500CCF800006FF091
:1001C000020E704710B5084A1268914209D8074CD0
:1001D00054F8214090E80F10A047EFF3098C8CE809
:1001E0000F0010BD2C0000209C0200089C0200089B
:1001F00001F008F8114B93E8060091421BD00CB4B3
:100200004FF0000381F82630EFF3098C2CE9F00F52
:10021000C1F82CC001F0D0F80CBC1A60D2F82CC088
:10022000BCE8F00F8CF3098892F826301BB192F8E5
:100230002530CCF800306FF0020E70472C00002003
:1002400001F09CF9D6E7000000F0D6FD01F096F928
:10025000D0E700000648804706480047FEE7FEE773
:10026000FEE7FEE7FEE7FEE7FEE7FEE7FEE7FEE766
:1002700095070008ED000008064C074D06E0E06811
:1002800040F0010394E8070098471034AC42F6D3DD
:10029000FFF730FFA4160008C41600080000000095
:1002A0000023054A42F201010448DFF814C000DFD0
:1002B000044908607047000040000020C90200089F
:1002C0000D1600080000002009E0022000F062FD89
:1002D000032000F05FFDC820DFF804C000DFF4E772
:1002E000910F0008FFF7DCFF0AE0012000F052FD4B
:1002F000042000F04FFD4FF4FA70DFF808C000DF73
:10030000F3E70000910F000800BFFEE708B52520C5
:100310008DF8000000208DF8020001208DF8030008
:10032000684600F007F908BD70472DE9F041024624
:1003300000250026002000230024002791F803C098
:100340000CF00F0591F803C01CF0100F03D091F8CA
:1003500002C04CEA050591F800C0BCF1000F31D095
:10036000146800202BE04FF0010C0CFA00F3B1F8F8
:1003700000C00CEA03069E4220D183004FF00F0C10
:100380000CFA03F7BC4305FA03FC4CEA040491F8A9
:1003900003C0BCF1280F06D14FF0010C0CFA00FC91
:1003A000C2F814C00AE091F803C0BCF1480F05D1AF
:1003B0004FF0010C0CFA00FCC2F810C0401C0828D9
:1003C000D1D31460B1F800C0BCF1FF0F34DD546824
:1003D00000202EE000F1080C4FF0010808FA0CF3A1
:1003E000B1F800C00CEA03069E4221D183004FF011
:1003F0000F0C0CFA03F7BC4305FA03FC4CEA0404A7
:1004000091F803C0BCF1280F05D100F1080C08FADF
:100410000CF8C2F8148091F803C0BCF1480F07D162
:1004200000F1080C4FF0010808FA0CF8C2F810802F
:10043000401C0828CED35460BDE8F081416170476C
:1004400009A100200BE00A5C124B1A8000BF114A80
:10045000121F128812F0400FF9D0421CD0B22A2885
:10046000F1D300BFFEE700000D0A456E74657220EF
:10047000486172644661756C745F48616E646C6556
:10048000722C2053797374656D2048616C742E0D45
:100490000A0000000438014000B585B001210520A4
:1004A00000F08CF80121880300F088F84FF4007008
:1004B000ADF8100018208DF8130003208DF81200FD
:1004C00004A91848FFF731FF4FF48060ADF8100021
:1004D00004208DF8130004A91248FFF726FF4FF4FB
:1004E000E13000900020ADF80400ADF80600ADF852
:1004F0000800ADF80C000C20ADF80A0069460A4867
:1005000000F0E4F9012240F22551074800F0B9F962
:100510000121054800F07FF94021034800F072F9FD
:1005200005B000BD000801400038014000BFFEE7F3
:100530007047000070B5002100230F22C4780CB36F
:10054000164C246804F4E064C4F5E064210AC1F1A7
:100550000403CA40447804FA03F184781440214328
:1005600009010F4C0678A155047804F01F050124F9
:10057000AC4005786D114FF0E02606EB8505C5F817
:10058000004109E0047804F01F050124AC40054D4A
:100590000678761145F8264070BD00000CED00E0AD
:1005A00000E400E080E100E002490143024A1160FA
:1005B000704700000000FA050CED00E029B1064A82
:1005C00092690243044B9A6104E0034A92698243B0
:1005D000014B9A61704700000010024030B50021C5
:1005E0000022002400232D4D6D6805F00C0121B17F
:1005F000042905D0082923D105E0294D056022E012
:10060000274D05601FE0254D6D6805F47012234DE0
:100610006D6805F48034022505EB92421CB9214D2A
:10062000554305600BE01D4D6D6815F4003F03D088
:100630001C4D5543056002E0194D5543056002E02D
:10064000174D056000BF00BF144D6D6805F0F00147
:100650000909154D6B5C0568DD4045600F4D6D68FF
:1006600005F4E061090A104D6B5C4568DD4085606A
:100670000A4D6D6805F46051C90A0B4D6B5C456805
:10068000DD40C560054D6D6805F44041890B074D9F
:100690006B5CC568B5FBF3F5056130BD0010024029
:1006A00000127A0000093D00080000201800002018
:1006B00010B500F001F810BD0CB5002001900090BD
:1006C0003248006840F480303049086000BF2F484D
:1006D000006800F4003000900198401C01900098E0
:1006E00018B90198B0F5A06FF1D12848006810F44E
:1006F000003F02D00120009001E00020009000980F
:10070000012842D12248006840F0100020490860CA
:100710000846006820F0030008600846006840F0C2
:100720000200086019484068184948600846406857
:1007300048600846406840F4806048600846406869
:1007400020F47C1048600846406840F4E810486097
:100750000846006840F08070086000BF0B480068E1
:1007600010F0007FFAD00948406820F003000749E4
:1007700048600846406840F00200486000BF0348F7
:10078000406800F00C000828F9D10CBD00100240B0
:100790000020024010B51348006840F001001149E4
:1007A000086008464068104908400E4948600846FD
:1007B00000680E4908400B4908600846006820F4AC
:1007C000802008600846406820F4FE0048604FF42E
:1007D0001F008860FFF76CFF4FF00060044908605D
:1007E00010BD0000001002400000FFF8FFFFF6FE01
:1007F00008ED00E010B5024800F0DDF810BD000083
:100800004C16002001F40072B2F5007F00D100BF49
:10081000CA430280704721B1828942F4005282812A
:1008200004E082894DF6FF731A408281704770B5EB
:1008300002460024002300250020A1F510666A3E30
:1008400000D100BFC1F3421501F01F03012606FAD3
:1008500003F3012D02D19689334006E0022D02D127
:10086000168A334001E0968A33400C12012606FABC
:1008700004F41688344013B10CB1012000E00020CC
:1008800070BDF0B503460024002600250020A1F528
:1008900010676A3F00D100BF1846C1F3421401F04F
:1008A0001F06012707FA06F5012C01D10C3004E0E0
:1008B000022C01D1103000E014301AB107682F4328
:1008C000076002E00768AF430760F0BD2DE9F0471D
:1008D00086B005460E460024A24600BFA14600276A
:1008E000B08900B100BF2F462C8A4CF6FF7004403F
:1008F000F08804432C82AC894EF6F3100440B08893
:1009000031890843718908430443AC81AC8A4FF6AE
:10091000FF400440B0890443AC8201A8FFF75EFEAB
:100920001F48874202D1DDF810A001E0DDF80CA0DD
:10093000A88910F4004F08D00AEBCA0000EB0A1097
:1009400031684900B0FBF1F807E00AEBCA0000EBA0
:100950000A1031688900B0FBF1F86420B8FBF0F0B0
:1009600004012009642101FB1089A88910F4004FBB
:1009700008D0322000EBC900B0FBF1F000F0070016
:10098000044308E0322000EB09106421B0FBF1F0D1
:1009900000F00F0004432C8106B0BDE8F087000092
:1009A0000038014001468888C0F308007047C1F351
:1009B00008028280704770B5044640F225512068D5
:1009C000FFF735FFE0B12068FFF7ECFFC5B2E18A21
:1009D000A0684554E08A401C80B2E082E1898842E8
:1009E00001DB0020E082608BE189884202DA608BC3
:1009F000401C6083606A10B12846616A884700BF66
:100A000040F227712068FFF712FF08B3A08A60B98F
:100A1000002240F227712068FFF733FF012240F2E5
:100A200026612068FFF72DFF37E0638A6268D15C9A
:100A30002068FFF7BCFF608A401C80B26082A189F9
:100A4000884201DB00206082A08A401EA08224E050
:100A500040F226612068FFF7EAFEF0B1A08A50B9A3
:100A6000002240F226612068FFF70BFF206AA0B148
:100A7000206A804711E0638A6268D15C2068FFF7D2
:100A800096FF608A401C80B26082A189884201DBA7
:100A900000206082A08A401EA08270BD0A480B49D7
:100AA00008600B4848600B4888604FF4806088817C
:100AB000C881002008824882C882088348838882CF
:100AC000C861086248627047003801404C16002037
:100AD00074160020741A002000BFFEE702E008C868
:100AE000121F08C1002AFAD170477047002001E0A8
:100AF00001C1121F002AFBD17047F0B503460E4614
:100B000012F0004F06D022F00040C01D20F0070276
:100B1000102503E0D01C20F003020C250AB90120A7
:100B2000F0BD5019B04201D90120F9E759191960F7
:100B30009F195F609A60BF1A05E08C18BC4200D90B
:100B400002E00C602146F8E700BF0020086000BF0B
:100B5000E6E710B54FF44070FFF726FD00F012F9FC
:100B600000F0D6F800F001F810BD10B500F090F8D4
:100B700000F002F810BD000008B501210820FFF7C1
:100B80001DFD03208DF8020010208DF803000120C8
:100B9000ADF8000069463D48FFF7C7FB0220ADF8FD
:100BA000000069463948FFF7C0FB0420ADF800009B
:100BB00069463648FFF7B9FB0820ADF800006946E2
:100BC0003248FFF7B2FB1020ADF8000069462F480D
:100BD000FFF7ABFB2020ADF8000069462B48FFF77C
:100BE000A4FB4020ADF8000069462848FFF79DFBB4
:100BF0008020ADF8000069462448FFF796FB0320EB
:100C00008DF8020048208DF803004FF48070ADF895
:100C1000000069461D48FFF788FB4FF40070ADF8EF
:100C2000000069461948FFF780FB4FF48060ADF87B
:100C3000000069461548FFF778FB4FF40060ADF8F7
:100C4000000069461148FFF770FB4FF48050ADF883
:100C5000000069460D48FFF768FB4FF40050ADF8FF
:100C6000000069460948FFF760FB4FF48040ADF88B
:100C7000000069460548FFF758FB4FF40040ADF807
:100C8000000069460148FFF750FB08BD000C014019
:100C900000211D4A9172D1721173002018E0642165
:100CA0001A4A02EB001211810221184A02EB0012CB
:100CB00011710021154A02EB00129172134A02EBE6
:100CC0000012D172114A02EB00121173411CC8B21A
:100CD0003D28E4DB64220D490A87052281F83B2088
:100CE0006422A1F84820052281F84B206422A1F853
:100CF0005820052281F85B206422A1F86820052293
:100D000081F86B20704700003C1600206C12002018
:100D100008B501210420FFF751FC03208DF80200E3
:100D200010208DF80300ADF8000069461448FFF765
:100D3000FCFA2020ADF8000069461148FFF7F5FAEB
:100D40004020ADF8000069460D48FFF7EEFA80201C
:100D5000ADF8000069460A48FFF7E7FA1021084895
:100D6000FFF76CFB20210648FFF768FB4021044891
:100D7000FFF764FB80210248FFF760FB08BD00001D
:100D80000008014010B5FFF789FEFFF785FBFFF76C
:100D9000BDFA10BD70470000FFF7DBFEFFF7B6F9A4
:100DA000044A4FF002110448DFF810C000DF00BF12
:100DB000FEE7000060000020E5020008F9130008CB
:100DC00000BFFEE700BFFEE700BF094800684FF024
:100DD000E02148610020886107200861054800681B
:100DE00040F07F400349086000BF4817704700008B
:100DF0008416000820ED00E070477047014600BFF0
:100E000051E8000F10B9BFF32F8F04E0036841E8E9
:100E10000032002AF4D100BF7047000070B50446CC
:100E20000D4694B14FF6FF70844204DA0749086812
:100E3000214600F039FA054800684570044800F082
:100E400001F90646304600F0CFFA70BD2C000020B4
:100E5000741E002010B51248006812494968884283
:100E60000BD0104840680E4908600846C0880E49FB
:100E700009880844401E0A498880094880880A4930
:100E8000098889B288420AD10020054908600548CE
:100E900000F0D8F804462146024800F033FA10BDAD
:100EA0001C000020741E00203400002010B52148D2
:100EB000C06800B910BD1F48808A401E1D49888245
:100EC0002EE01C48C468A06858B1D4E9010148600C
:100ED000606820B1D4E901108860002060600020C3
:100EE000A0602146144800F00DFAA08A11498882BA
:100EF0006078042804D1E08A104909880844A08257
:100F00000120607084F825000A49E068C860E06844
:100F100020B10846E16808610020E06000202061FF
:100F20000448808A18B90348C0680028C9D100BFA6
:100F3000C0E700008C1E0020741E0020340000203A
:100F400010B504463CB9104800F07CF80446204631
:100F500000F04AFA17E0A0780C49096889788842BD
:100F60000BDD0A49086800F0EDF90120074909681E
:100F70004870204600F038FA05E0012060702146F4
:100F8000014800F0BFF910BD741E00202C000020A5
:100F900010B5044603212046FFF740FF10BD0000B6
:100FA00070B504460E46208B30432083658B6078F5
:100FB000062804D1208B2840A84200D10AE060789E
:100FC000052816D1208B284213D0608B218B084036
:100FD000608300BF208BA8432083204600F0BCF92B
:100FE00001206070022084F825002146014800F0AD
:100FF00089F970BD741E00200246914202D35068E8
:10100000884201D80120704700BF52E8000F0860F5
:1010100042E800100028F8D100BFF4E7012107E002
:10102000481E064A52F8200008B908467047491C75
:10103000034800888142F3D90020F7E754120020CA
:10104000781600080146486842684A600A78022A11
:1010500005D00A78012A02D00A78032A08D142680A
:101060001AB142689160002242600022826001E071
:10107000002242607047000070B504460D461646D7
:101080000020207001206070A57084F8245000209A
:101090006060A060E06020612062A082E082208326
:1010A000608384F8250084F82600208D18B9044850
:1010B000FFF7A4FE20633146204600F00FF870BD14
:1010C000C003002000200349086003480088C8804E
:1010D000704700001C0000208016000870B5024612
:1010E0000B46158DAC101CB90F4D2D88C5F38D0422
:1010F000156B05EB840010F0040F00D0001F403882
:101100004FF08075C5638363002103E0002540F83C
:101110002150491C0E29F9D3D5690562D062536369
:10112000024D166B356070BD7C160008A52E5AE284
:1011300070B504460E46606838B36078022824D142
:10114000002060702046FFF77DFF0546002085F8EF
:101150002500228904F11000E96940F8221000BF3F
:1011600004F10C00D0E85F0F401C04F10C01C1E851
:10117000520F002AF4D12089401C80B22081E189DD
:10118000884201D1002020810DE06068A8B1A089CB
:1011900098B92046FFF756FF0546E8690660042027
:1011A00085F8250000BF01206870284600F0D4F8BB
:1011B0002946134800F0A6F821E0A089E189884279
:1011C0001ADA218904F1100040F8216000BF04F10F
:1011D0000C00D0E85F0F401C04F10C01C1E8520F75
:1011E000002AF4D12089401C80B22081E189884204
:1011F00005D10020208102E00320FFF7E1FD70BD52
:10120000741E002070B501202449096848702349E4
:10121000086800F097F82248447831E02048001D23
:1012200050F83450287848B91D48001D00EBC40020
:10123000808881B22846FFF7B3FE0EE028780128A7
:1012400008D11748001D00EBC40041682846FFF78D
:101250006FFF02E0284600F093F8601C0446104936
:10126000C978884200D1002400BF0D48801CD0E816
:101270004F0F401E0A49891CC1E8420F002AF4D1D1
:10128000074880780028C9D105494C700548FFF708
:10129000D9FE0646304600F0A7F870BD2C000020AD
:1012A000D0110020741E002070B50C46234614494E
:1012B000CD680DB9002205E0114DAA8A0EE0CD6877
:1012C0004DB900BF0025C560C86001619D1A8D82BF
:1012D0000025858270BDC9688D8A2A449A42EED362
:1012E000CD68C560C8600161C5680DB1C568286179
:1012F000D51A85828D8A868AAD1B8D8200BFE9E76B
:101300008C1E002030B50A4600240578022D05D039
:101310000578012D02D00578032D00D101249378A2
:10132000416801E00846496811B18D789D42F9D2C3
:10133000516042601CB101B18A60906001E00025FB
:10134000956030BD034949684160002181600149D1
:1013500048607047741E0020016981B1C268CA608C
:10136000C26842B18A8A838A1A448A82C268116139
:101370000022C26001E000228A82002202617047DE
:1013800070B50546686880B12846FFF75BFE0446E5
:101390002046FFF7E1FF01206070032084F825005C
:1013A00021460448FFF7AEFF02E06888401C6880D1
:1013B00070BD0000741E002010B509480068C06AA6
:1013C00007490968096B884206D305480068006B25
:1013D00000680449884202D00120FFF7F1FC10BDEB
:1013E0002C000020A52E5AE20249486002214170DB
:1013F000704700002C0000202DE9F04105460E4604
:101400001746002404E00020494941F82400641CE8
:10141000484800888442F6D3382247480188474824
:10142000FFF76BFB4648008880B240F00042454819
:1014300001684548FFF761FB082244480188444899
:101440000068FFF75AFBFF204249C870002008855A
:10145000414A00213F48FFF70FFE04203F49087032
:101460000020486004203E4908700020C8600861E0
:1014700088823849C96A01F12000FEF741FE3548EB
:101480003849086002200968487000203649087011
:10149000487036480078C870FFF714FE00BF344A21
:1014A000126842F47F02324B1A601A4612684FF0FB
:1014B0007F4303EA0222D243B2FA82F2C2F1080069
:1014C0002B4A143A1268C2F30221814200DB481C05
:1014D000274A121F13686FF08072824063F317026D
:1014E000234B1B1F1A6000BFFFF76EFC21490860E9
:1014F00008460068002812DBFF2009681E4A88544D
:101500001C48007800F01F01012088401949096833
:1015100049114FF0E02202EB8101C1F800010023E4
:101520003A463146284600F071F8BDE8F0810000E7
:10153000541200207816000894160008600200205B
:101540007C16000898160008C00300209E160008AC
:1015500004000020A41E0020C50D0008741E0020F9
:101560008C1E00202C000020D01100209C160008AA
:1015700020ED00E02400002000E400E010B5012090
:101580000C49096848700B490868FFF7DBFEFFF754
:1015900061FC09480068401C07490860FFF786FCA9
:1015A00000F00EF80548FFF74DFD04462046FFF712
:1015B0001BFF10BD2C00002034000020741E0020F2
:1015C00010B51048006800B910BD0E488088401E54
:1015D0000C4988800CE0E088FFF70FFCA0880949DF
:1015E000888020680860214607480068FFF704FDEE
:1015F0000448808818B903480468002CEBD100BF68
:10160000E2E7000038000020040000202DE9F04748
:1016100007460D469046994615F0FF0F00D16D1C08
:101620001248FFF7EBFB044614B90020BDE8F08731
:10163000C4F83080C5F30F202085C4F81C90E9B2AF
:101640003A462046FFF718FDFFF7E8FC0646701EF5
:10165000074941F82040E6702046FFF771FC054934
:10166000096881F825603046E0E70000600200204C
:10167000541200202C00002006000000000200018F
:10168000050001003F19010001000000E80300000F
:10169000000000005C010000100E000010000000BF
:1016A00049000400C41600080000002040000000AB
:1016B000DC0A00080417000840000020A0220000F7
:1016C000EC0A00080000000000000000000000001C
:1016D00001020304010203040607080902040608C4
:1016E00000000000000000000000000000000000FA
:1016F00000000000000000000000000000000000EA
:0417000000000000E5
:04000005080000ED02
:00000001FF
